:020000022000DC
:1060000000000120B5620200DD620200DF620200D2
:10601000E1620200E3620200E562020000000000AB
:10602000000000000000000000000000E762020025
:10603000E962020000000000EB620200ED62020073
:10604000EF620200EF620200A5660200EF6202004A
:10605000EF620200EF620200EF620200EF620200F4
:10606000EF620200EF620200EF620200EF620200E4
:10607000EF620200EF620200EF620200EF620200D4
:10608000EF620200EF620200EF620200EF620200C4
:10609000EF620200EF620200EF620200EF620200B4
:1060A000EF620200EF620200EF620200EF620200A4
:1060B000EF620200EF62020000000000000000003A
:1060C000EF620200EF620200EF620200EF62020084
:1060D000EF620200EF620200EF62020000000000C7
:1060E00000000000000000000000000000000000B0
:1060F00000000000000000000000000000000000A0
:10610000000000000000000000000000000000008F
:10611000000000000000000000000000000000007F
:10612000000000000000000000000000000000006F
:10613000000000000000000000000000000000005F
:10614000000000000000000000000000000000004F
:10615000000000000000000000000000000000003F
:10616000000000000000000000000000000000002F
:10617000000000000000000000000000000000001F
:10618000000000000000000000000000000000000F
:1061900000000000000000000000000000000000FF
:1061A00000000000000000000000000000000000EF
:1061B00000000000000000000000000000000000DF
:1061C00000000000000000000000000000000000CF
:1061D00000000000000000000000000000000000BF
:1061E00000000000000000000000000000000000AF
:1061F000000000000000000000000000000000009F
:1062000010B5054C237833B9044B13B10448AFF3F0
:1062100000800123237010BD082B00200000000027
:10622000B47A020008B5034B1BB103490348AFF32E
:10623000008008BD000000000C2B0020B47A020092
:10624000154B002B08BF134B9D46A3F5803A002148
:106250008B460F461348144A121A00F09DFC0F4B50
:10626000002B00D098470E4B002B00D09847002001
:10627000002104000D000D48002802D00C48AFF3A7
:10628000008000F057FC2000290000F0EDFA00F03B
:106290003DFC00BF000008000000012000000000DD
:1062A00000000000082B0020D02B00200000000080
:1062B000000000000649074A074B9B1A03DD043B18
:1062C000C858D050FBDC00F013F8FFF7B9FF00000E
:1062D000507B0200982A0020082B0020FEE7FEE7F2
:1062E000FEE7FEE7FEE7FEE7FEE7FEE7FEE7FEE786
:1062F00030B4B84B1B78062B20D0B74B1B68062B4D
:1063000000F08180B54AD2F8883043F47003C2F8B7
:106310008830BFF34F8FBFF36F8F4FF01023D3F848
:106320000022002AC0F28681D3F80432002BC0F28A
:106330008181AB4BAB4A1A6030BC7047AA4B1B68DB
:106340001D07DAD1A94B1B6803F0F002302A00F0D8
:106350009B8003F0E003402B00F09680A34B1B686A
:1063600003F0F003302B00F0A080A04B1B6803F07B
:10637000F002302A77D003F0E003402B73D09B4B20
:106380001B6803F0F003302B00F01481974B1B685F
:1063900003F0F002302A52D003F0E003402B4ED03D
:1063A000924B1B6803F0F003302B00F0F5808F4B0D
:1063B0001B6803F0F003302B00F0D7808B4B1B6879
:1063C00003F0F003502B7ED0884B1B6803F0F002E3
:1063D000302A23D003F0E003402B1FD0834B1B68EF
:1063E00003F0F002302A03D003F0E003402B84D105
:1063F0004FF08043D3F80024D20744BF6FF001026E
:10640000C3F8002479E77A4B1B68062B7FF47AAF38
:10641000784A136843F48063136073E7764B6D4AE0
:106420001B681278754903F04F03062A0B607FF44E
:1064300064AF6D4B1B6819077FF45FAFCEE7654A09
:1064400011784FF0804300220629C3F80C21C3F8CD
:106450001021C3F838257FF450AF634B1B681B072E
:106460007FF44BAF9CE7664B5A4A1B68127865492C
:10647000C3F34233062A0B607FF43FAF5A4B1B68CD
:1064800019077FF43AAF7AE75F4B524A1B681278DC
:106490005E49C3F30423062A0B607FF42EAF524BF0
:1064A0001B681C077FF429AF58E74A4B584A1B78F2
:1064B00058491160062B7FF420AF4B4B1B6818071F
:1064C0007FF41BAF51E74FF08052534BD2F80414C6
:1064D000C3F82015D2F80814C3F82415D2F80C1408
:1064E000C3F82815D2F81014C3F82C15D2F81414D8
:1064F000C3F83015D2F81814C3F83415D2F81C14A8
:10650000C3F84015D2F82014C3F84415D2F8241467
:10651000C3F84815D2F82814C3F84C15D2F82C1437
:10652000C3F85015D2F83014C3F85415D2F8341407
:10653000C3F86015D2F83814C3F86415D2F83C14C7
:10654000C3F86815D2F840142248C3F86C15D2F885
:1065500044140278C3F87015062A7FF4CEAE224B9D
:106560001B6818077FF4C9AE2EE71A4B2B4C1B781B
:106570002B492C482C4A0525256001250D60002457
:106580003F21062B046011607FF4B7AE164B1B68E9
:106590001C077FF4B2AE11E70E4B244A1B7803218F
:1065A000062B11607FF4A9AE0F4B1B681D077FF40B
:1065B000A4AEFCE61E4A0749D368097823F080732D
:1065C0000629D3607FF499AE074B1B681A077FF446
:1065D00094AEDBE6E00F00F03001001000ED00E0CB
:1065E000982A00200090D003E40F00F0E80F00F09C
:1065F000340100103C17004058020010E40E004027
:10660000440200103C0500402403001040350140C6
:1066100074C007400DF0ADBA00C0004010560040F5
:10662000885600401856004014560040A00500400F
:10663000F0ED00E0184A0123C2F80435D2F8003426
:10664000002BFBD04FF010231521134AC3F8001282
:10665000D2F80034002BFBD04FF0102315210E4A46
:10666000C3F80412D2F80034002BFBD000230A49EF
:10667000C2F80435D1F80034002BFBD0BFF34F8FA4
:106680000649074BCA6802F4E0621343CB60BFF3CC
:106690004F8F00BFFDE700BF00E0014000ED00E0CC
:1066A0000400FA0530B56E4AD2F8043399058BB070
:1066B00067D5D2F82431002B63D00023C2F82431EF
:1066C000D2F8243101934FF40171664B0198C2F85E
:1066D000081393F8291009B9012151606049022279
:1066E0008DF81820D1F88024C1F880249869D968E1
:1066F00009920022CDE90710C3E90622D3E900146C
:1067000006A8A047564AD2F81C31C3B1554B586968
:10671000196A88426AD993F8281001F0FF0000290D
:1067200064D1C2F81C01D2F81C11039103999C6832
:10673000186A196A205C01311962C2F81C05484ABE
:10674000D2F84431DBB10021464BC2F84411D2F8F3
:10675000440193F829100090009809B101211160BB
:106760009A6962B1586AD96800229A610122CDE91A
:1067700007108DF8182006A8D3E9001290470BB037
:1067800030BD374AD2F804335B07BBD5D2F80831A5
:10679000002BB7D0334B996900293ED00021C2F8B5
:1067A0000811D2F8081104910499D868596AD2F8EE
:1067B000182542545A6A996901325A625A6A8A42C1
:1067C000A0D1DA69002A31D0DD685C6A18699A6163
:1067D00001210022D860DA615A628DF81810CDE9E3
:1067E0000754D3E9001206A890478BE71C4A002102
:1067F000C2F81C11D2F81C210292029A5A69002A8E
:106800009DD058699A688DF81810089059610792C0
:1068100006A8D3E90012904791E7C2F80811D2F810
:10682000080105900598D2F81825C7E793F82920A4
:1068300012B90B4A01215160094A4FF40171C2F8A3
:106840000813596ADA6808910024012007928DF82C
:106850001800D3E900129C6106A8904752E700BFD8
:1068600000200040242B002070B51148012392B075
:106870000C220B21044600F01FF80E4B1D682E0C55
:1068800000230DF1070203A920468DF80730ADF86B
:1068900008508DF80A6000F0B5F89DF80C30012B17
:1068A000EED1032202A9204600F02AF8E8E700BF53
:1068B000502B0020AC7A020070B40E480E4D0F4CE5
:1068C0000026C0F80065C0F808250126C0F80C15A0
:1068D0004FF0FF32C0F888350923C0F89465C0F83E
:1068E0000823C0F83455C0F84445C0F8003570BCE2
:1068F000704700BF00300040542B0020902B002038
:106900003E4BC3F84825002A6CD03D4B30B4CC1C1C
:10691000E41A501E062CC0B25AD9072858D9086864
:10692000186090084C685C60022832D08C689C60CB
:1069300003282ED0CC68DC6004282AD00C691C61A6
:10694000052826D04C695C61062822D08C699C61A0
:1069500007281ED0CC69DC6108281AD00C6A1C629A
:10696000092816D04C6A5C620A2812D08C6A9C6294
:106970000B280ED0CC6ADC620C280AD00C6B1C638E
:106980000D2806D00E284C6B18BF886B5C6318BFAF
:10699000986332F0FC0402F0FC000DD0441CE4B219
:1069A0000D5C1D54A24207D90230C0B20D5D1D55C9
:1069B000824201D90A5C1A54104A01235363D2F867
:1069C0000431002BFBD00023C2F8043130BC7047E7
:1069D0000B4B0844013911F8012F03F8012B8142B8
:1069E000F9D1E9E7054A01235363D2F80431002BBA
:1069F000FBD00023C2F80431704700BF00300040D4
:106A0000902B00203F4B4FF480700122C3F83805D3
:106A100018461A63D0F84C31002BFBD00023394ABA
:106A2000C0F84C31D2F80431002BFBD00023C2F85F
:106A30000431D2F83C3513F0FF0362D0324A30B44F
:106A4000CC1CA41A581E062CC0B24FD907284DD909
:106A500010680860506848609808022831D094682F
:106A60008C6003282DD0D468CC60042829D0146908
:106A70000C61052825D054694C61062821D0946901
:106A80008C6107281DD0D469CC61082819D0146AFC
:106A90000C62092815D0546A4C620A2811D0946AF5
:106AA0008C620B280DD0D46ACC620C2809D0146BF0
:106AB0000C630D2805D0546B4C630E281CBF906BE3
:106AC000886333F0FC0403F0FC000DD0441CE4B2F6
:106AD000155C0D54A34207D90230C0B2155D0D55A7
:106AE000834201D9135C0B5430BC7047064B0844F9
:106AF000013913F8012B01F8012F8142F9D130BC83
:106B00007047704700300040542B002008B5074BF9
:106B1000044613B10021AFF30080054B1868836A67
:106B200003B19847204600F03FF800BF0000000086
:106B3000B07A020070B50D4D0D4C641BA4100026F8
:106B4000A64209D10B4D0C4C00F0A4FF641BA4100D
:106B50000026A64205D170BD55F8043B9847013682
:106B6000EEE755F8043B98470136F2E7002B00208A
:106B7000002B0020002B0020042B00200A4491420F
:106B800000F1FF3300D1704710B511F8014B03F845
:106B9000014F9142F9D110BD02440346934200D106
:106BA000704703F8011BF9E7FEE700BF03685A00CE
:106BB0004CBF43F0004323F000431844704700BF2C
:106BC0002DE9F84329B34F1E044615463E464FF0C3
:106BD000000808EB060101EBD171491004EBC10973
:106BE0004846FFF7E3FF0346C80008308F422044C1
:106BF00009D0AB4209D8FFF7D9FF0138A8420AD221
:106C000001F10108E5E7AB4205D9884501D04E1EE8
:106C1000DFE74FF000094846BDE8F883012807D0B8
:106C2000022807D0044B00280CBF184600207047EC
:106C30000248704702487047CD720200D5720200C8
:106C4000DD72020030B5234B83B004468D1E3BB38A
:106C500001A92846AFF30080E8B101992A46FFF761
:106C6000AFFF0146B8B1FFF7A1FF4B68A064012B4D
:106C70002BD0002B01F1040023DBFFF797FF00234B
:106C8000C4E913030368002B10DBFFF78FFF2061BB
:106C9000002003B030BD00230920236103B030BDC4
:106CA0000D490E48091AC9100191D7E7C3F30360D3
:106CB000FFF7B4FF0028206114BF0020092003B0B3
:106CC00030BD0123C4E91303DCE700232361052061
:106CD000DFE700BF00000000507B0200B87A02002E
:106CE0000368DA0710B5044606D49B0700F1480094
:106CF00009D500F047FC2368590709D51A070ED5B6
:106D0000DB0613D510BD00F035FC23685907F5D418
:106D100004F1D00000F03EFC23681A07F0D404F51B
:106D2000A87000F03FFC2368DB06EBD404F5E870A4
:106D3000BDE8104000F07ABC0346006800B118447A
:106D4000704700BF704700BF70B504460E46316CF7
:106D50002046FFF777FF054688B9336C63613246FA
:106D600023692146012098470828F0D0072806D13A
:106D70002846316CFFF7E6FF301D00F0EFFB00F016
:106D80002DFE00BF2DE9F0470D1D064614460FCD20
:106D9000ADF5727D0DF10C0CACE80F000FCDACE839
:106DA0000F000FCDACE80F0095E80F0002ADF768BB
:106DB000D6F818808CE80F0000232B6021E02B6CA4
:106DC00073614FF4F07229467AA8FFF7D7FE336952
:106DD0007AAA314650469847889BCDE9005821460B
:106DE0006B648146334632460120B8470446E8B911
:106DF0004FF4F0727AA92846FFF7C0FEB9F1080FE8
:106E00001BD1296C3046FFF71DFF09345FFA84FA65
:106E100081460028D3D0AB6B4AF01001CDE9005871
:106E200032466B6401203346B84708B14FF0090978
:106E300048460DF5727DBDE8F087B9F1070FF5D131
:106E40002046296CFFF77EFF03A800F087FB00BFF8
:106E5000F0B5CB6B0B640E1D0F4605460FCEF9B097
:106E600001AC0FC40FCE0FC40FCE0FC496E80F00B5
:106E70004FF0FF3684E80F00009606E02B696A4663
:106E8000294698470828044608D110992846FFF754
:106E9000D9FE0028F2D0092079B0F0BD6846FFF78E
:106EA0001FFF062CF7D139462846FFF74DFF00BFDC
:106EB00030B4DD6BC160826119461D64002230BCB4
:106EC000FFF760BF70B5C66843690B64AEB903696C
:106ED0000A4604460D46014602209847072805D079
:106EE00008280FD129462046FFF72EFF3046296C8F
:106EF000FFF728FF281D00F031FB0122FFF742FFBA
:106F000000F06CFD00F06AFDC26822B1CA6B0A6431
:106F10000022FFF737BFFFF79BBF00BF012912D048
:106F200009D873B90F2A0CD800EB820218465368AF
:106F3000009A136070470339012994BF0120022091
:106F40007047022070470846704700BF10B584B0F4
:106F5000002303AC0A4600941946FFF7DFFF0398AD
:106F600004B010BD012912D009D873B90F2A0CD86A
:106F700000EB8200009A126842601846704703399D
:106F8000012994BF01200220704702207047084663
:106F9000704700BF10B584B0002303AC0392009487
:106FA0000A461946FFF7DEFF04B010BDF0B5D36BFB
:106FB0001364151D8C4606460FCDADF50F7D17AC3D
:106FC0000FC40FCD0FC40FCD0FC495E80F004FF0C5
:106FD000FF3784E80F006546169710E0FFF7DAFFE9
:106FE000294616A8B047034616AA6946082083B961
:106FF000049B9847052804460CD0092809D02699F7
:107000006846FFF71FFE03466A460C2116A8002BB0
:10701000E4D0092416A8FFF763FE20460DF50F7D86
:10702000F0BD00BF2DE9F04FCC6C89B00D4654F88F
:10703000041B0694174600F003081E46002B79D067
:107040000B0CDAB209048DF81D30022304EB820424
:1070500005918DF81C302B6DB8F1020F08BFAC6B99
:1070600013F001030CD0384605A900F069FB18B9EC
:10707000082009B0BDE8F08F092009B0BDE8F08F05
:10708000D4F800A0BAF1000FEDD0019300F008038E
:107090000293022E4AD0B4F800A0B4F8029004344F
:1070A000AA6C29F0010B0F2138469344FFF74EFFDD
:1070B000834539D82AF001025A44824294BF002005
:1070C00001204FEA490303F002030AF0010A43EAF0
:1070D0000A03012B49D0022B32D0002BCCD1B8F1BE
:1070E000000F02D0002840F0CD800434D4F800A076
:1070F000BAF1000FCDD105A9384600F021FB0028D8
:10710000BAD1019B002BB3D00F213846FFF71EFFE9
:107110000E2102463846FFF73DFF38466A4A0F21E6
:10712000FFF738FF0720A8E70020CAE7D4F804904B
:107130000834B5E7090203230591ADF81C308AE74E
:10714000236823F0004BB8F1000F45D128B1029A13
:10715000002A5CD0BBF1000F74D0002B00DA04349D
:107160000BF1010B04EB8B04C0E7B8F1000F19D150
:10717000B0B1D4E90023991C4FEAD2723FF47CAF3E
:1071800005F158010133049100F09080201DFFF7B4
:10719000D3FD04AB01462846AFF3008000285BD145
:1071A0000834A3E70D213846D5F82090FFF7CEFE2E
:1071B0008145F5D1AB6A9C42F2D12046FFF7F6FC3F
:1071C0000F2102463846FFF7E5FE38462A460021E1
:1071D000FFF7E0FE072050E70D213846D5F8209054
:1071E000FFF7B4FE814501D02368B6E7AB6A9C4245
:1071F000FAD104220021C5E90B12A318C5F828B062
:107200006B6323688B4259DB01230193A8E705F1E7
:107210005803CDF80C8004F1040AB04691461E468E
:107220000DE00496FFF788FD04AB014600222846D6
:10723000AFF3008009F101090AF1040AE8B9D94560
:107240005046EED138460D21FFF780FE049B2862A0
:10725000C5E90934062010E781460D213846FFF7BD
:1072600075FEB9F1020F286225D12B46049A43F826
:107270002C2F6B62AC620620FFE646462368DDF8E1
:107280000C806AE72046FFF791FC04340246AC63A9
:1072900028461446AFF3008000283FF4EDAE384690
:1072A00022460F21FFF776FE0720E6E638460D213D
:1072B000FFF74CFE2862049B6B62DBE70BF10100D9
:1072C00004EB80007AE700BF000000000023FFF716
:1072D000A9BE00BF0123FFF7A5BE00BF0223FFF731
:1072E000A1BE00BF2DE9F0430646C3B015461C46BB
:1072F000042900F2B980DFE801F09A53B7290300AE
:10730000002C40F0B180102A00F2AE800368D8064D
:1073100000F1F38020AF384600F092F9B06B002303
:10732000012404FA03F22A42014604D051F8042B46
:1073300047F8232008460133042BF2D1B0633846C6
:1073400000F074F9002043B0BDE8F083032C40F056
:107350008B8094B204EB1243102B4FEA124500F2DB
:10736000838003681F0700F1D08020AF384600F00B
:107370003BF907EBC501B56B54B10B46E81A01EBBD
:10738000C401E4001A5843F8042B8B42FAD1254477
:107390003846B56300F006F9002043B0BDE8F0833D
:1073A000012C4FEA124895B25AD0052C5CD108EB5B
:1073B0000509B9F1200F57D8B8F10F0F77D9A946B1
:1073C000002D40F08880B36B6DB320AF4FF0000903
:1073D00007EBC807043F03EBC50553F8041B47F848
:1073E000041FAB42F9D1B9F1000F0FD06F464146EF
:1073F000102938BF102107EBC101843903EBC905FF
:1074000053F8040B41F8040FAB42F9D1012C00F002
:107410008480B8F10F0FB56345D9B9F1000F02D0E0
:10742000684600F0B7F8002043B0BDE8F083DCB94F
:10743000876B2346012094B206F1040C00FA03F294
:107440002242394604D051F8042B4CF823200F4631
:107450000133102BF2D115F40050E4D1B76304E0EE
:1074600008EB0503102B03D9022043B0BDE8F083DD
:10747000B8F10F0FF8D83368DA0706D5304623F095
:10748000030340F8483B00F079F820AF384600F09D
:1074900075F8B36B002D99D11D460435B563384698
:1074A00000F068F8BFE720A800F06CF8B5E7B9F184
:1074B000100F40D9A9F110093368D90708D523F076
:1074C0000103304643F0020340F8483B00F05EF809
:1074D000B9F1000F32D033685A0720D4B8F10F0F3A
:1074E00025D96F463846C8F1100500F057F8002D31
:1074F000B36B7FF77CAF20AF6AE723F010033360F4
:1075000006F5E87000F09CF804E723F00803036038
:1075100000F5A87000F068F827E720AFBDE7304617
:1075200023F0040340F8D03B00F038F8D6E720A859
:1075300000F02CF8D5E74FF00009BDE7B8F10F0FC8
:107540003FF641AF20AF384600F020F8B36B002D76
:107550007FF43CAF384600F015F864E700F13401E1
:1075600091E838009C46A6464CF8045D90E8FF0F71
:10757000E54600BD90EC210B704700BF80EC210B6D
:10758000704700BF90EC200B704700BF80EC200BD1
:10759000704700BFD0EC200B704700BFC0EC200B41
:1075A000704700BFF0EC0201F0EC0211F0EC022198
:1075B000F0EC0231F0EC0241F0EC0251F0EC02612F
:1075C000F0EC0271F0EC0281F0EC0291F0EC02A11F
:1075D000F0EC02B1F0EC02C1F0EC02D1F0EC02E10F
:1075E000F0EC02F1704700BFE0EC0201E0EC0211A8
:1075F000E0EC0221E0EC0231E0EC0241E0EC02516F
:10760000E0EC0261E0EC0271E0EC0281E0EC02915E
:10761000E0EC02A1E0EC02B1E0EC02C1E0EC02D14E
:10762000E0EC02E1E0EC02F1704700BFB0FC018148
:10763000B0FC0191B0FC01A1B0FC01B1704700BFEA
:10764000A0FC0181A0FC0191A0FC01A1A0FC01B162
:10765000704700BFEC4600B52DE900502DE9FF1F33
:107660004FF000032DE90C0001A9FFF7F1FBDDF855
:1076700040E012B0704700BFEC4600B52DE9005065
:107680002DE9FF1F4FF000032DE90C0001A9FFF7C2
:1076900019FCDDF840E012B0704700BFEC4600B5C1
:1076A0002DE900502DE9FF1F4FF000032DE90C00DC
:1076B00001A9FFF729FCDDF840E012B0704700BFD8
:1076C000EC4600B52DE900502DE9FF1F4FF00003F7
:1076D0002DE90C0001ABFFF7EBFBDDF840E012B049
:1076E000704700BFEC4600B52DE900502DE9FF1FA3
:1076F0004FF000032DE90C0001AAFFF757FCDDF85D
:1077000040E012B0704700BF027A7AB9437AA3B161
:107710004268013B10B4437213680321141D0172C7
:107720001A024460026010BC180E70470368013AE8
:1077300002721A020260180E7047B020704700BF34
:107740002DE9F043054685B00E464FF0000830465F
:10775000FFF7DAFFB028044600F0B280070620D514
:1077600000F0F003802B4DD0902B36D0A02B60D0B2
:10777000B02B74D0C02B00F08B8000F0F803D02B1E
:107780000BD100F00702013242F40022052301214F
:107790002846FFF7A7FD0028D9D0092005B0BDE88D
:1077A000F0830DF10C09002319468700CDF80090F5
:1077B0000D222846FFF7B2FBFFB2039BCDF80090E5
:1077C000043760064CBFDF1BFF18002319460D224B
:1077D00028460397FFF7C6FBB9E700F00D030D2B12
:1077E000DBD003AF002300F00F02194600972846B4
:1077F000FFF794FB0023009719460D222846FFF758
:10780000B1FBA4E73046FFF77FFF24022043B0F529
:10781000004FC2D004010023A2B219462846FFF748
:1078200061FD0028B9D114F4004F18BF4FF00108D2
:107830008DE7C24302F007034FF47F621A4101074C
:1078400002F47F624FF0000348BF42F480421946C1
:107850002846FFF747FD00283FF479AF9DE7B128A0
:1078600033D0B22800F08B80B32839D000F0FC036D
:10787000B42B92D000F007020132012342F400221F
:1078800019462846FFF72EFD00283FF460AF84E735
:10789000C62842D0C7284CD000F0F803C02B5BD0DC
:1078A000C82860D0C9287FF478AF3046FFF72CFF96
:1078B000020300F00F0002F470220130024365E77A
:1078C000B8F1000F18D0002068E73046FFF71CFF22
:1078D000024600283FF461AF10F0F003D0D05CE71F
:1078E0003046FFF711FF010300F00F0001F4702193
:1078F000421C01230A43C3E703AC43460E22414620
:1079000000942846FFF70AFB0094284643460F22BE
:107910004146FFF727FB404640E73046FFF7F4FEBD
:10792000010300F00F0001F47021421C03230A43FD
:10793000A6E73046FFF7E8FE024600283FF42DAFE9
:1079400010F0F0037FF429AF04212846FFF7CAFCAA
:1079500000283FF4FCAE20E700F00F0201320323C1
:1079600042F420228CE73046FFF7CEFE00F0F00212
:1079700000F00F031032013343EA023206E700231E
:107980000DF10C090D221946CDF800902846FFF79D
:10799000C5FA3046FFF7B8FE02064FF002070CD5D5
:1079A000039B00F07F00B840034430460393FFF789
:1079B000ABFE030607F10707F2D4039BCDF8009056
:1079C00000F07F0403F50172BC4000231444194603
:1079D0000D2228460394FFF7C5FAB8E608B506203D
:1079E00000F02CF80120FFF7DFF81F2938B5044616
:1079F0000D4604D9162303604FF0FF3038BD426CAA
:107A000012B152F821304BB9204600F031F82A4625
:107A100001462046BDE8384000F018B8012B0AD0D6
:107A2000591C03D1162303600120E7E7002442F824
:107A30002540284698470020E0E70000024B014619
:107A40001868FFF7D2BF00BF9C2A002038B5074D49
:107A500000230446084611462B6000F013F8431C2F
:107A600002D12B6803B1236038BD00BFCC2B0020AE
:107A700000F000B8024B58221A604FF0FF307047F8
:107A8000CC2B0020024B58221A604FF0FF30704779
:107A9000CC2B0020F8B500BFF8BC08BC9E46704750
:107AA000F8B500BFF8BC08BC9E4670470102030051
:087AB000A02A002000000000E4
:107AB80088E7FF7F01000000A8EDFF7FB0AA1180D2
:107AC800F0EDFF7F0100000074F1FF7FB0A9028094
:107AD80008F2FF7FB0B0A88058F2FF7F01000000D5
:107AE80060F2FF7FB0B0AA8094F2FF7FAE71B280DF
:107AF80058F3FF7FAB3F3880B0F3FF7F01000000F1
:107B0800BCF3FF7FB0B0AA80F8F3FF7F010000004C
:107B180094F4FF7FAB0EB28004F5FF7FB0AF08800E
:107B2800A4F7FF7F01000000B4F7FF7FAD3F02809C
:107B380024FAFF7F0100000000FCFF7FB0AD048045
:087B480094FEFF7F0100000024
:107B50000090D003A02A00200000000000000000D8
:107B60000000000000000000000000000000000015
:107B70000000000000000000000000000000000005
:107B800000000000000000000000000000000000F5
:107B900000000000000000000000000000000000E5
:107BA00000000000000000000000000000000000D5
:107BB00000000000000000002562020001620200D7
:04000003200062B5C2
:00000001FF
